{
  "_format": "hh-sol-artifact-1",
  "contractName": "ERC20Payments",
  "sourceName": "contracts/payments/ERC20Payments.sol",
  "abi": [
    {
      "inputs": [
        {
          "internalType": "contract IERC20",
          "name": "token",
          "type": "address"
        }
      ],
      "stateMutability": "nonpayable",
      "type": "constructor"
    },
    {
      "anonymous": false,
      "inputs": [
        {
          "indexed": false,
          "internalType": "contract IERC20",
          "name": "token",
          "type": "address"
        }
      ],
      "name": "Initialised",
      "type": "event"
    },
    {
      "anonymous": false,
      "inputs": [
        {
          "indexed": true,
          "internalType": "address",
          "name": "previousOwner",
          "type": "address"
        },
        {
          "indexed": true,
          "internalType": "address",
          "name": "newOwner",
          "type": "address"
        }
      ],
      "name": "OwnershipTransferred",
      "type": "event"
    },
    {
      "anonymous": false,
      "inputs": [
        {
          "components": [
            {
              "internalType": "address",
              "name": "addr",
              "type": "address"
            },
            {
              "internalType": "uint256",
              "name": "weighting",
              "type": "uint256"
            }
          ],
          "indexed": false,
          "internalType": "struct IERC20Payments.Payee",
          "name": "payee",
          "type": "tuple"
        }
      ],
      "name": "PayeeAdded",
      "type": "event"
    },
    {
      "anonymous": false,
      "inputs": [],
      "name": "PayeesDeleted",
      "type": "event"
    },
    {
      "anonymous": false,
      "inputs": [
        {
          "indexed": false,
          "internalType": "address",
          "name": "to",
          "type": "address"
        },
        {
          "indexed": false,
          "internalType": "uint256",
          "name": "payment",
          "type": "uint256"
        }
      ],
      "name": "Payment",
      "type": "event"
    },
    {
      "inputs": [
        {
          "components": [
            {
              "internalType": "address",
              "name": "addr",
              "type": "address"
            },
            {
              "internalType": "uint256",
              "name": "weighting",
              "type": "uint256"
            }
          ],
          "internalType": "struct IERC20Payments.Payee",
          "name": "payee",
          "type": "tuple"
        }
      ],
      "name": "addPayee",
      "outputs": [],
      "stateMutability": "nonpayable",
      "type": "function"
    },
    {
      "inputs": [],
      "name": "deletePayees",
      "outputs": [],
      "stateMutability": "nonpayable",
      "type": "function"
    },
    {
      "inputs": [],
      "name": "owner",
      "outputs": [
        {
          "internalType": "address",
          "name": "",
          "type": "address"
        }
      ],
      "stateMutability": "view",
      "type": "function"
    },
    {
      "inputs": [],
      "name": "renounceOwnership",
      "outputs": [],
      "stateMutability": "nonpayable",
      "type": "function"
    },
    {
      "inputs": [
        {
          "internalType": "address",
          "name": "newOwner",
          "type": "address"
        }
      ],
      "name": "transferOwnership",
      "outputs": [],
      "stateMutability": "nonpayable",
      "type": "function"
    }
  ],
  "bytecode": "0x60806040523480156200001157600080fd5b5060405162000fc938038062000fc9833981810160405281019062000037919062000222565b620000576200004b620000d860201b60201c565b620000e060201b60201c565b80600360006101000a81548173ffffffffffffffffffffffffffffffffffffffff021916908373ffffffffffffffffffffffffffffffffffffffff1602179055507f5d9c6eca3aa29285f0d196378994b220eb3ca7dcbf15f1480bf1bb3901bec19281604051620000c99190620002bf565b60405180910390a150620002dc565b600033905090565b60008060009054906101000a900473ffffffffffffffffffffffffffffffffffffffff169050816000806101000a81548173ffffffffffffffffffffffffffffffffffffffff021916908373ffffffffffffffffffffffffffffffffffffffff1602179055508173ffffffffffffffffffffffffffffffffffffffff168173ffffffffffffffffffffffffffffffffffffffff167f8be0079c531659141344cd1fd0a4f28419497f9722a3daafe3b4186f6b6457e060405160405180910390a35050565b600080fd5b600073ffffffffffffffffffffffffffffffffffffffff82169050919050565b6000620001d682620001a9565b9050919050565b6000620001ea82620001c9565b9050919050565b620001fc81620001dd565b81146200020857600080fd5b50565b6000815190506200021c81620001f1565b92915050565b6000602082840312156200023b576200023a620001a4565b5b60006200024b848285016200020b565b91505092915050565b6000819050919050565b60006200027f620002796200027384620001a9565b62000254565b620001a9565b9050919050565b600062000293826200025e565b9050919050565b6000620002a78262000286565b9050919050565b620002b9816200029a565b82525050565b6000602082019050620002d66000830184620002ae565b92915050565b610cdd80620002ec6000396000f3fe608060405234801561001057600080fd5b50600436106100575760003560e01c8063715018a61461005c5780638da5cb5b14610066578063d2ed45a614610084578063f2fde38b146100a0578063f36cf004146100bc575b600080fd5b6100646100c6565b005b61006e61014e565b60405161007b9190610678565b60405180910390f35b61009e600480360381019061009991906106bc565b610177565b005b6100ba60048036038101906100b59190610715565b61034c565b005b6100c4610443565b005b6100ce610501565b73ffffffffffffffffffffffffffffffffffffffff166100ec61014e565b73ffffffffffffffffffffffffffffffffffffffff1614610142576040517f08c379a00000000000000000000000000000000000000000000000000000000081526004016101399061079f565b60405180910390fd5b61014c6000610509565b565b60008060009054906101000a900473ffffffffffffffffffffffffffffffffffffffff16905090565b61017f610501565b73ffffffffffffffffffffffffffffffffffffffff1661019d61014e565b73ffffffffffffffffffffffffffffffffffffffff16146101f3576040517f08c379a00000000000000000000000000000000000000000000000000000000081526004016101ea9061079f565b60405180910390fd5b600081602001351161023a576040517f08c379a000000000000000000000000000000000000000000000000000000000815260040161023190610831565b60405180910390fd5b600073ffffffffffffffffffffffffffffffffffffffff168160000160208101906102659190610715565b73ffffffffffffffffffffffffffffffffffffffff16036102bb576040517f08c379a00000000000000000000000000000000000000000000000000000000081526004016102b2906108c3565b60405180910390fd5b8060200135600260008282546102d1919061091c565b92505081905550600181908060018154018082558091505060019003906000526020600020906002020160009091909190915081816103109190610b4c565b50507f7792a2e37ee3e7df3c75e0f609540c83624726d5453ef1a0cdf43e12ba782874816040516103419190610bfa565b60405180910390a150565b610354610501565b73ffffffffffffffffffffffffffffffffffffffff1661037261014e565b73ffffffffffffffffffffffffffffffffffffffff16146103c8576040517f08c379a00000000000000000000000000000000000000000000000000000000081526004016103bf9061079f565b60405180910390fd5b600073ffffffffffffffffffffffffffffffffffffffff168173ffffffffffffffffffffffffffffffffffffffff1603610437576040517f08c379a000000000000000000000000000000000000000000000000000000000815260040161042e90610c87565b60405180910390fd5b61044081610509565b50565b61044b610501565b73ffffffffffffffffffffffffffffffffffffffff1661046961014e565b73ffffffffffffffffffffffffffffffffffffffff16146104bf576040517f08c379a00000000000000000000000000000000000000000000000000000000081526004016104b69061079f565b60405180910390fd5b600260009055600160006104d391906105cd565b7f1d4ba8e41142149d9ac59262a7bd57595f204c2e41e5d704306bbd3426228eac60405160405180910390a1565b600033905090565b60008060009054906101000a900473ffffffffffffffffffffffffffffffffffffffff169050816000806101000a81548173ffffffffffffffffffffffffffffffffffffffff021916908373ffffffffffffffffffffffffffffffffffffffff1602179055508173ffffffffffffffffffffffffffffffffffffffff168173ffffffffffffffffffffffffffffffffffffffff167f8be0079c531659141344cd1fd0a4f28419497f9722a3daafe3b4186f6b6457e060405160405180910390a35050565b50805460008255600202906000526020600020908101906105ee91906105f1565b50565b5b8082111561063357600080820160006101000a81549073ffffffffffffffffffffffffffffffffffffffff02191690556001820160009055506002016105f2565b5090565b600073ffffffffffffffffffffffffffffffffffffffff82169050919050565b600061066282610637565b9050919050565b61067281610657565b82525050565b600060208201905061068d6000830184610669565b92915050565b600080fd5b600080fd5b6000604082840312156106b3576106b2610698565b5b81905092915050565b6000604082840312156106d2576106d1610693565b5b60006106e08482850161069d565b91505092915050565b6106f281610657565b81146106fd57600080fd5b50565b60008135905061070f816106e9565b92915050565b60006020828403121561072b5761072a610693565b5b600061073984828501610700565b91505092915050565b600082825260208201905092915050565b7f4f776e61626c653a2063616c6c6572206973206e6f7420746865206f776e6572600082015250565b6000610789602083610742565b915061079482610753565b602082019050919050565b600060208201905081810360008301526107b88161077c565b9050919050565b7f416c6c20706179656573206d7573742068617665206120776569676874696e6760008201527f2e00000000000000000000000000000000000000000000000000000000000000602082015250565b600061081b602183610742565b9150610826826107bf565b604082019050919050565b6000602082019050818103600083015261084a8161080e565b9050919050565b7f50617965652063616e6e6f7420626520746865207a65726f206164647265737360008201527f2e00000000000000000000000000000000000000000000000000000000000000602082015250565b60006108ad602183610742565b91506108b882610851565b604082019050919050565b600060208201905081810360008301526108dc816108a0565b9050919050565b6000819050919050565b7f4e487b7100000000000000000000000000000000000000000000000000000000600052601160045260246000fd5b6000610927826108e3565b9150610932836108e3565b9250827fffffffffffffffffffffffffffffffffffffffffffffffffffffffffffffffff03821115610967576109666108ed565b5b828201905092915050565b6000813561097f816106e9565b80915050919050565b60008160001b9050919050565b600073ffffffffffffffffffffffffffffffffffffffff6109b584610988565b9350801983169250808416831791505092915050565b6000819050919050565b60006109f06109eb6109e684610637565b6109cb565b610637565b9050919050565b6000610a02826109d5565b9050919050565b6000610a14826109f7565b9050919050565b6000819050919050565b610a2e82610a09565b610a41610a3a82610a1b565b8354610995565b8255505050565b610a51816108e3565b8114610a5c57600080fd5b50565b60008135610a6c81610a48565b80915050919050565b60007fffffffffffffffffffffffffffffffffffffffffffffffffffffffffffffffff610aa184610988565b9350801983169250808416831791505092915050565b6000610ad2610acd610ac8846108e3565b6109cb565b6108e3565b9050919050565b6000819050919050565b610aec82610ab7565b610aff610af882610ad9565b8354610a75565b8255505050565b600081016000830180610b1881610972565b9050610b248184610a25565b505050600181016020830180610b3981610a5f565b9050610b458184610ae3565b5050505050565b610b568282610b06565b5050565b6000610b696020840184610700565b905092915050565b610b7a81610657565b82525050565b600081359050610b8f81610a48565b92915050565b6000610ba46020840184610b80565b905092915050565b610bb5816108e3565b82525050565b60408201610bcc6000830183610b5a565b610bd96000850182610b71565b50610be76020830183610b95565b610bf46020850182610bac565b50505050565b6000604082019050610c0f6000830184610bbb565b92915050565b7f4f776e61626c653a206e6577206f776e657220697320746865207a65726f206160008201527f6464726573730000000000000000000000000000000000000000000000000000602082015250565b6000610c71602683610742565b9150610c7c82610c15565b604082019050919050565b60006020820190508181036000830152610ca081610c64565b905091905056fea264697066735822122027e8f5937103689bd5b0f7c066d9018a17a1594b2d3181f606160e3993d783a064736f6c634300080e0033",
  "linkReferences": {},
  "deployedLinkReferences": {}
}